{"contracts/generated/temporary/PaymentTemporary.sol":{"PaymentTemporary":{"abi":[{"inputs":[{"components":[{"internalType":"bytes32[]","name":"merkleProof","type":"bytes32[]"},{"components":[{"internalType":"bytes32","name":"attestationType","type":"bytes32"},{"internalType":"bytes32","name":"sourceId","type":"bytes32"},{"internalType":"uint64","name":"votingRound","type":"uint64"},{"internalType":"uint64","name":"lowestUsedTimestamp","type":"uint64"},{"components":[{"internalType":"bytes32","name":"transactionId","type":"bytes32"},{"internalType":"uint256","name":"inUtxo","type":"uint256"},{"internalType":"uint256","name":"utxo","type":"uint256"}],"internalType":"struct IPayment.RequestBody","name":"requestBody","type":"tuple"},{"components":[{"internalType":"uint64","name":"blockNumber","type":"uint64"},{"internalType":"uint64","name":"blockTimestamp","type":"uint64"},{"internalType":"bytes32","name":"sourceAddressHash","type":"bytes32"},{"internalType":"bytes32","name":"receivingAddressHash","type":"bytes32"},{"internalType":"bytes32","name":"intendedReceivingAddressHash","type":"bytes32"},{"internalType":"int256","name":"spentAmount","type":"int256"},{"internalType":"int256","name":"intendedSpentAmount","type":"int256"},{"internalType":"int256","name":"receivedAmount","type":"int256"},{"internalType":"int256","name":"intendedReceivedAmount","type":"int256"},{"internalType":"bytes32","name":"standardPaymentReference","type":"bytes32"},{"internalType":"bool","name":"oneToOne","type":"bool"},{"internalType":"uint8","name":"status","type":"uint8"}],"internalType":"struct IPayment.ResponseBody","name":"responseBody","type":"tuple"}],"internalType":"struct IPayment.Response","name":"data","type":"tuple"}],"internalType":"struct IPayment.Proof","name":"_proof","type":"tuple"}],"name":"proof","outputs":[],"stateMutability":"pure","type":"function"},{"inputs":[{"components":[{"internalType":"bytes32","name":"attestationType","type":"bytes32"},{"internalType":"bytes32","name":"sourceId","type":"bytes32"},{"internalType":"bytes32","name":"messageIntegrityCode","type":"bytes32"},{"components":[{"internalType":"bytes32","name":"transactionId","type":"bytes32"},{"internalType":"uint256","name":"inUtxo","type":"uint256"},{"internalType":"uint256","name":"utxo","type":"uint256"}],"internalType":"struct IPayment.RequestBody","name":"requestBody","type":"tuple"}],"internalType":"struct IPayment.Request","name":"_request","type":"tuple"}],"name":"request","outputs":[],"stateMutability":"pure","type":"function"},{"inputs":[{"components":[{"internalType":"bytes32","name":"attestationType","type":"bytes32"},{"internalType":"bytes32","name":"sourceId","type":"bytes32"},{"internalType":"uint64","name":"votingRound","type":"uint64"},{"internalType":"uint64","name":"lowestUsedTimestamp","type":"uint64"},{"components":[{"internalType":"bytes32","name":"transactionId","type":"bytes32"},{"internalType":"uint256","name":"inUtxo","type":"uint256"},{"internalType":"uint256","name":"utxo","type":"uint256"}],"internalType":"struct IPayment.RequestBody","name":"requestBody","type":"tuple"},{"components":[{"internalType":"uint64","name":"blockNumber","type":"uint64"},{"internalType":"uint64","name":"blockTimestamp","type":"uint64"},{"internalType":"bytes32","name":"sourceAddressHash","type":"bytes32"},{"internalType":"bytes32","name":"receivingAddressHash","type":"bytes32"},{"internalType":"bytes32","name":"intendedReceivingAddressHash","type":"bytes32"},{"internalType":"int256","name":"spentAmount","type":"int256"},{"internalType":"int256","name":"intendedSpentAmount","type":"int256"},{"internalType":"int256","name":"receivedAmount","type":"int256"},{"internalType":"int256","name":"intendedReceivedAmount","type":"int256"},{"internalType":"bytes32","name":"standardPaymentReference","type":"bytes32"},{"internalType":"bool","name":"oneToOne","type":"bool"},{"internalType":"uint8","name":"status","type":"uint8"}],"internalType":"struct IPayment.ResponseBody","name":"responseBody","type":"tuple"}],"internalType":"struct IPayment.Response","name":"_response","type":"tuple"}],"name":"response","outputs":[],"stateMutability":"pure","type":"function"}],"evm":{"bytecode":{"linkReferences":{},"object":"608060405234801561001057600080fd5b50610106806100206000396000f3fe6080604052348015600f57600080fd5b5060043610603c5760003560e01c8063611e9d1e14604157806368ed074a14605157806388a9e07114605c575b600080fd5b604f604c3660046067565b50565b005b604f604c366004607f565b604f604c3660046090565b60006102608284031215607957600080fd5b50919050565b600060c08284031215607957600080fd5b60006020828403121560a157600080fd5b813567ffffffffffffffff81111560b757600080fd5b8201610280818503121560c957600080fd5b939250505056fea264697066735822122061b9e992da93fcc6c1faab9443934569865d25aa8488cb443852f6111532048064736f6c63430008140033","opcodes":"PUSH1 0x80 PUSH1 0x40 MSTORE CALLVALUE DUP1 ISZERO PUSH2 0x10 JUMPI PUSH1 0x0 DUP1 REVERT JUMPDEST POP PUSH2 0x106 DUP1 PUSH2 0x20 PUSH1 0x0 CODECOPY PUSH1 0x0 RETURN INVALID PUSH1 0x80 PUSH1 0x40 MSTORE CALLVALUE DUP1 ISZERO PUSH1 0xF JUMPI PUSH1 0x0 DUP1 REVERT JUMPDEST POP PUSH1 0x4 CALLDATASIZE LT PUSH1 0x3C JUMPI PUSH1 0x0 CALLDATALOAD PUSH1 0xE0 SHR DUP1 PUSH4 0x611E9D1E EQ PUSH1 0x41 JUMPI DUP1 PUSH4 0x68ED074A EQ PUSH1 0x51 JUMPI DUP1 PUSH4 0x88A9E071 EQ PUSH1 0x5C JUMPI JUMPDEST PUSH1 0x0 DUP1 REVERT JUMPDEST PUSH1 0x4F PUSH1 0x4C CALLDATASIZE PUSH1 0x4 PUSH1 0x67 JUMP JUMPDEST POP JUMP JUMPDEST STOP JUMPDEST PUSH1 0x4F PUSH1 0x4C CALLDATASIZE PUSH1 0x4 PUSH1 0x7F JUMP JUMPDEST PUSH1 0x4F PUSH1 0x4C CALLDATASIZE PUSH1 0x4 PUSH1 0x90 JUMP JUMPDEST PUSH1 0x0 PUSH2 0x260 DUP3 DUP5 SUB SLT ISZERO PUSH1 0x79 JUMPI PUSH1 0x0 DUP1 REVERT JUMPDEST POP SWAP2 SWAP1 POP JUMP JUMPDEST PUSH1 0x0 PUSH1 0xC0 DUP3 DUP5 SUB SLT ISZERO PUSH1 0x79 JUMPI PUSH1 0x0 DUP1 REVERT JUMPDEST PUSH1 0x0 PUSH1 0x20 DUP3 DUP5 SUB SLT ISZERO PUSH1 0xA1 JUMPI PUSH1 0x0 DUP1 REVERT JUMPDEST DUP2 CALLDATALOAD PUSH8 0xFFFFFFFFFFFFFFFF DUP2 GT ISZERO PUSH1 0xB7 JUMPI PUSH1 0x0 DUP1 REVERT JUMPDEST DUP3 ADD PUSH2 0x280 DUP2 DUP6 SUB SLT ISZERO PUSH1 0xC9 JUMPI PUSH1 0x0 DUP1 REVERT JUMPDEST SWAP4 SWAP3 POP POP POP JUMP INVALID LOG2 PUSH5 0x6970667358 0x22 SLT KECCAK256 PUSH2 0xB9E9 SWAP3 0xDA SWAP4 0xFC 0xC6 0xC1 STATICCALL 0xAB SWAP5 NUMBER SWAP4 GASLIMIT PUSH10 0x865D25AA8488CB443852 0xF6 GT ISZERO ORIGIN DIV DUP1 PUSH5 0x736F6C6343 STOP ADDMOD EQ STOP CALLER "},"methodIdentifiers":{"proof((bytes32[],(bytes32,bytes32,uint64,uint64,(bytes32,uint256,uint256),(uint64,uint64,bytes32,bytes32,bytes32,int256,int256,int256,int256,bytes32,bool,uint8))))":"88a9e071","request((bytes32,bytes32,bytes32,(bytes32,uint256,uint256)))":"68ed074a","response((bytes32,bytes32,uint64,uint64,(bytes32,uint256,uint256),(uint64,uint64,bytes32,bytes32,bytes32,int256,int256,int256,int256,bytes32,bool,uint8)))":"611e9d1e"}}}}}